:020000040800F2
:1000000010B6002051030008F1290008891E0008DD
:1000100045290008E91B00088D3800080000000091
:10002000000000000000000000000000B90200080D
:10003000FD1B000800000000FD020008F52C000870
:100040006B0300086B0300086B0300086B030008D8
:100050006B0300086B0300086B0300086B030008C8
:100060006B0300086B0300086B0300086B030008B8
:100070006B0300086B0300086B0300086B030008A8
:100080006B0300086B0300086B0300086B03000898
:100090006B0300086B0300086B0300086B03000888
:1000A0006B0300086B0300086B0300086B03000878
:1000B0006B0300086B0300086B0300086B03000868
:1000C0006B0300086B0300086B0300086B03000858
:1000D0006B030008A1340008D13400086B0300084A
:1000E0006B0300086B0300086B0300086B03000838
:1000F0006B0300086B0300086B0300086B03000828
:100100006B0300086B0300086B0300086B03000817
:100110006B0300086B030008252F0008A52F0008BB
:100120006B0300086B0300086B0300086B030008F7
:1001300000F002F800F0B0F80AA090E8000C824449
:100140008344AAF10107DA4501D100F0A5F8AFF226
:10015000090EBAE80F0013F0010F18BFFB1A43F0A5
:1001600001031847F8B1000018B200000A444FF02C
:10017000000C10F8013B13F0070408BF10F8014B06
:100180001D1108BF10F8015B641E05D010F8016B4B
:10019000641E01F8016BF9D113F0080F1EBF10F8AF
:1001A000014BAD1C0C1B09D16D1E58BF01F801CBD2
:1001B000FAD505E014F8016B01F8016B6D1EF9D555
:1001C0009142D6D37047000000230024002500266A
:1001D000103A28BF78C1FBD8520728BF30C148BFAA
:1001E0000B6070476E2900F0E983702900F0D1811F
:1001F000662908F0EA84652908F0E784672908F091
:10020000E4846129AFF3008003681B0A28BF41F032
:100210008001692900F04281642900F03F8175293D
:1002200000F03C816F2900F0F086782900F09D8174
:10023000E92900F08B86E42900F08886F52900F092
:100240008586EF2900F0ED86F82900F09C8103688F
:10025000DB0928BF41F08001632900F0FA8573298A
:1002600000F0FF85E32900F0D987F32900F0DE874D
:10027000002070471FB500F039FF04000020002166
:1002800007F0E2FB401C60600020002107F0C6FB85
:10029000E0601FBD10B510BD01F066F81146FFF714
:1002A000E9FF04F01BFC01F08DF803B4FFF7F2FF47
:1002B00003BC03F070FB0000224B19680868B0E82B
:1002C000F00F80F30988BFF36F8F4FF0000080F3C9
:1002D00011884EF00D0E70470000000006480068BF
:1002E000006880F3088862B661B6BFF34F8FBFF332
:1002F0006F8F00DF00BF00BF08ED00E0EFF3098063
:10030000BFF36F8F0F4B1A6820E9F00F106008B52C
:100310004FF0500080F31188BFF34F8FBFF36F8F02
:1003200006F0FAFC4FF0000080F31188BDE80840A9
:1003300019680868B0E8F00F80F30988BFF36F8F81
:10034000704700BFCC010020EFF30580704700002C
:100350000948804709480047FEE7FEE7FEE7FEE759
:10036000FEE7FEE7FEE7FEE7FEE7FEE70448054995
:10037000054A064B70470000092D000831010008AE
:1003800010B0002010B6002010B2002010B20020E3
:10039000704700001CB50C46064B7B446946009034
:1003A000204600F034FD04460020694600F042FD7E
:1003B00020461CBD970A00000FB4044910B503AADB
:1003C000029800F053FD10BC5DF814FB980100206A
:1003D0000FB41CB5084B06AA7B44694600900598EB
:1003E00000F015FD04460020694600F023FD20467C
:1003F0001CBC5DF814FB0000590A000070B50446EF
:1004000085690068C10601D5302600E02026C007B6
:1004100007D070BDD4E9012130469047206A401CC6
:1004200020626D1EF6D570BD70B5044685690078F2
:10043000C00707D170BDD4E9012120209047206A70
:10044000401C20626D1EF6D570BD70B50C46054689
:10045000012A05D02878800600D5EA69002302E049
:10046000012305E05B1C934202D2E05C0028F9D135
:10047000A869E618C01AA861286A184428622846A4
:10048000FFF7BCFF04E0D5E9012114F8010B904708
:10049000B442F8D32846FFF7C7FF70BD2DE9F041FD
:1004A0000646002410687529314616A510D000F0C4
:1004B0001AFA002802DA404213A507E031688A07D9
:1004C00001D512A502E0490704D511A5012401E0D8
:1004D00000F012FA00210A2206F1240709E0B0FB1D
:1004E000F2FCB0FBF2F302FB1C00303078541846EB
:1004F000491C0028F3D123462A463046BDE8F04186
:1005000000F003BA000000002D0000002B000000E6
:1005100020000000F0B40D460188090502D5214CE9
:100520007C4402E01F4C7C440E34002100F1240680
:1005300008E002F00F071209E75D42EA03721B09A7
:100540007754491C52EA0307F3D1027800231207BB
:1005500004D5702D06D009B1022311342246F0BC17
:1005600000F0D3B901231034F8E770B504460D4606
:100570002146106800F0C0F9024629462046BDE831
:1005800070400023C6E7D21D22F00703D3E9002301
:10059000C0E70368126843F0200303600823C361C7
:1005A0000023B7E720AC00002DE9F05F8946044640
:1005B0004FF0000ADFF874B1FB44C0F820A02046D9
:1005C000E1688847002874D0252806D0D4E90121A5
:1005D0009047206A401C2062F1E700265F462046D3
:1005E000E16888472028054607DB312D05D27819B8
:1005F00010F8200C08B10643F1E7B00701D526F04A
:100600000406C4F81CA00027C4F818A02A2D09D09D
:10061000284603F0B9F938B304EB8708303DC8F831
:10062000185019E059F8041B204604EB8702916129
:10063000E1688847012F054618D1E069002820DAD3
:1006400026F020061DE0D8F8180000EB800005EB2E
:1006500040003038C8F818002046E1688847054651
:1006600003F092F90028EED1012F0AD02E2D08D1E7
:100670002046E16888477F1C0546022F46F0200689
:10068000C4DBA069002803DA404246F00106A061FD
:10069000F00701D026F010066C2D0BD0682D09D084
:1006A0004C2D39D06A2D35D0742D35D07A2D33D0DC
:1006B00016E038E0E1682F4620468847B8420546F4
:1006C00009D16C2F26D04FF48060E16806432046A4
:1006D0008847054604E06C2F1AD04FF4807006431B
:1006E0000DB3A5F14100192802D8203546F4006663
:1006F0004A462946204626604E46FFF773FD80B1E4
:1007000001280BD0F61D26F0070000F1080956E776
:100710004020E4E78020D8E70020D6E706F104096E
:100720004DE7284652E7206ABDE8F09FB0AB0000D5
:1007300030B505460B462A4613F8014B12F8010B5B
:1007400008B1A042F8D01CB1002802D06D1CF1E71E
:10075000284630BD40EA010310B59B070FD1042A9B
:100760000DD310C808C9121F9C42F8D020BA19BA7C
:10077000884201D9012010BD4FF0FF3010BD1AB1E1
:10078000D30703D0521C07E0002010BD10F8013B36
:1007900011F8014B1B1B07D110F8013B11F8014B5D
:1007A0001B1B01D1921EF1D1184610BD10B5431C80
:1007B00002E010F8011B71B18107FAD14FF001324C
:1007C00002C88C1A8C4314EAC211F9D0C01A0A0666
:1007D00003D0C01E10BDC01A10BD0A0401D0801E77
:1007E00010BD0902FCD0401E10BD032A40F230802B
:1007F00010F0030C00F0158011F8013BBCF1020F62
:10080000624498BF11F801CB00F8013B38BF11F8E2
:10081000013BA2F1040298BF00F801CB38BF00F8F9
:10082000013B11F0030300F00784083AC0F0088090
:1008300051F8043B083A51F804CBA0E80810F5E75A
:10084000121D5CBF51F8043B40F8043BAFF300803D
:10085000D20724BF11F8013B11F801CB48BF11F8B2
:10086000012B24BF00F8013B00F801CB48BF00F882
:10087000012B704702F0FF0343EA032242EA0242DF
:1008800000F002B84FF000020429C0F0128010F00E
:10089000030C00F00584CCF1040CBCF1020F18BF6E
:1008A00000F8012BA8BF20F8022BA1EB0C0100F0EF
:1008B000F7BB5FEAC17C24BF00F8012B00F8012BD5
:1008C00048BF00F8012B704770477047704770476A
:1008D00010B500F00FFC006810BD10B5044600F024
:1008E00009FC046010BD09684A0501D540B2704793
:1008F000C905FCD500B2704709684A0501D5C0B2E8
:100900007047C905FCD580B270472DE9F0470D4608
:1009100099469246044600F124080168880604D5E9
:10092000E06921F01001216000E00120A84201DD12
:10093000471B00E00027A1697A1902EB0900081A99
:10094000A0612078C00602D42046FFF757FD00269C
:1009500008E0D4E901211AF806009047206A401CFB
:10096000761C20624E45F4DB2078C0060AD520466E
:10097000FFF744FD06E0D4E9012130209047206ACA
:10098000401C2062381EA7F10107F4DC07E0D4E91F
:10099000012118F805009047206A401C2062281E9B
:1009A000A5F10105F3DC2046FFF73EFD20780006A7
:1009B00002D50220BDE8F0870120FBE7116802683C
:1009C000006A530501D508700AE0D30501D50880F7
:1009D00006E0130603D5C217C1E9000200E0086073
:1009E0000120704770472DE9FF4F0C461E464FF01F
:1009F000FF378BB0D2E90001DDF860800A908A46AB
:100A0000C1F30A5505B93D46002108464FF00000E4
:100A1000BAF1000F00F4400005DA00EB80004FF45B
:100A2000400101EA50004FEA9059B9F1010F00DD91
:100A3000B9460A9850EA4A000ED044F61050A5F282
:100A4000FF3545432F14B8F1000F1ED07542291E03
:100A50001EDDC9F100021CE0B8F1010F4FF00000EB
:100A600001D0302103E0F24305E02154401CB042A4
:100A7000FBDB30460022002121540B99C1F808808D
:100A8000C1E900200FB0BDE8F08FBD1B6D1CDEE793
:100A90004A4600DA694206A800F0CCFB06AB93E8B0
:100AA000070003AB83E8070050460A9900F0D4FC26
:100AB0008DE80700A0F500501F3800900398002D26
:100AC0000ADD42F21F014A460844002303A90390AD
:100AD000684600F03DFF09E0A0F500504A461F3887
:100AE000002303A90390684600F047FF8DE8070044
:100AF0000004000C03D04FF0FF30410800E0104626
:100B0000B8F1000F03D00022009215461EE0751EBA
:100B100005D400F0F3FA303262556D1EF9D5B346B4
:100B20000122084302D000227F1C04E020783028F4
:100B300001D100227F1E002A099784D01DE0112DCB
:100B400007DA00F0DBFA303262556D1C50EA010220
:100B5000F5D1084302D00098C8B10EE00021681E0C
:100B600005E0235C625C63542254401E491C8142B0
:100B7000F7DBAB46A81B401E0990002004F80B00D1
:100B80000B98099AC0F80880C0E9002B7AE7112673
:100B90004FF0000857E72DE9F04F88460446D21D74
:100BA00022F0070191B0D1E90001CDE90A0102F07C
:100BB0006EFE02460B98C00F01D02D2007E0206882
:100BC000810701D52B2002E0202101EAC000032A81
:100BD000099001D0072A05DB03464146204600F074
:100BE000D3FA0BE12078800601D5E06900E0062009
:100BF000B8F1650F814606D0B8F1660F18D0B8F18C
:100C0000670F70D131E00020B9F1110F009001DBC6
:100C1000112301E009F101030AAA01A90CA8FFF7B9
:100C2000E2FEDDE90C70002609F10105834647E08C
:100C300001204B4600904FF000470AAA01A90CA8DA
:100C4000FFF7D1FEDDE90DB00C995D46002610B925
:100C500009F101000D18B9EB050003D4C0F1FF360E
:100C600009F10105A5EB09002BE0B9F1010F01DA4B
:100C70004FF001090020B9F1110F0090484601DD45
:100C8000112300E003460AAA01A90CA8FFF7ABFE56
:100C9000DDE90C704D4600268346207800070AD413
:100CA000AB4500DA5D4601A8012D04DD411911F8BC
:100CB000011C302907D04F4502DA17F1040F04DA7E
:100CC000012082460FE06D1EEEE7002F02DCED1BD7
:100CD0003E4403E0781CA84200DD7D1CB81B00F1F7
:100CE000010A4FF000472078000703D4AA4501DB32
:100CF0004FF0FF3A0021B7F1004F0DF143088DF896
:100D0000431024D002202B23002F01DA7F422D2311
:100D10000A21021EA0F1010000DC5FB197FBF1FC8B
:100D200097FBF1F201FB1C7C17460CF1300C08F824
:100D300001CDEEE7A8F1010003702188090501D576
:100D4000452100E06521A0F1010800F8011C099887
:100D50000FA9A1EB0807FF1D00B10120411901EB0C
:100D6000EA70A1693844081A401EA0612078C006C4
:100D700002D42046FFF742FB099828B1D4E90121AB
:100D80009047206A401C20622078C00622D5204669
:100D9000FFF734FB1EE0002E04DBB34502DD01A8A3
:100DA000805D00E03020D4E901219047206A401C9A
:100DB0002062761CAAF101005FEA000A0AD100F065
:100DC00095F9C0680168405CD4E901219047206A28
:100DD000401C2062281EA5F10105DCDC07E0D4E9F7
:100DE000012118F8010B9047206A401C2062381E30
:100DF000A7F10107F3DC2046FFF716FB032011B033
:100E000041E6000001694A1C02610878704700B59C
:100E10008FB0CDE901310021059105497944CDE933
:100E2000031011466846FFF7BFFB0FB000BD00007E
:100E3000E5FFFFFF0A6802F8010B0A60704710B572
:100E4000436913B1AFF3008001E0FFF7FEFA012020
:100E500010BD127800F124010A7000224A700122AC
:100E6000EDE711684FF0FF32E9E70000074B70B57E
:100E70000D467B44FFF7CBFF0446284600F04CFAB2
:100E800010B14FF0FF3070BD204670BD0B3B00002D
:100E90002DE9FF5F15468A460446DFF8AC80F8442A
:100EA0000027D8E900103E46CDE9001010E03AF8DE
:100EB00016106A4602A800F033FA411C07D02178C8
:100EC000890603D5E269391891420DD80744761C8A
:100ED0002078800602D5E069B84205DDAE42E6DB47
:100EE0003AF816000028E2D1A069C01BA061204694
:100EF000FFF784FAD8E90010CDE90010002017E0D0
:100F00003AF818106A4602A800F00AFAB0F1FF3F5A
:100F100081460BD000250DF1080B05E0D4E9012135
:100F20001BF8050090476D1C4D45F7D308F10100F3
:100F3000B0428046E4DB206A384420622046FFF756
:100F400073FABDE8FF9F00002EA300002DE9F041D9
:100F50008046D21D22F007020025D2E90002F529C1
:100F600015A614D0011E72F1000106DA0023D0EBA1
:100F7000030063EB020211A608E0D8F800108B070B
:100F800001D50FA602E0490701D50EA6012511469D
:100F9000002408F1240704E000F0B0F830323A559C
:100FA000641C50EA0102F7D12B46324621464046E6
:100FB000BDE8F041FFF7A9BC000000002D000000D3
:100FC0002B0000002000000030B4002100F12404B8
:100FD00008E002F00705D208303542EA4372DB0828
:100FE0006554491C52EA0305F3D10468002310A29A
:100FF000250707D5A40600D421B1C46901230DA299
:10100000641EC46130BCFFF780BC10B504462146A5
:101010001068FFF771FC02462046BDE8104000232F
:10102000D2E7D21D22F00701D1E90023CCE700006E
:10103000000000003000000010B5203AC0F00B8026
:10104000B1E81850203AA0E81850B1E81850A0E8CC
:101050001850BFF4F5AF5FEA027C24BFB1E8185026
:10106000A0E8185044BF18C918C0BDE810405FEA96
:10107000827C24BF51F8043B40F8043B08BF704712
:10108000D20728BF31F8023B48BF11F8012B28BF17
:1010900020F8023B48BF00F8012B70474FF00002D8
:1010A00000B5134694469646203922BFA0E80C505E
:1010B000A0E80C50B1F12001BFF4F7AF090728BF39
:1010C000A0E80C5048BF0CC05DF804EB890028BFB5
:1010D00040F8042B08BF704748BF20F8022B11F0DE
:1010E000804F18BF00F8012B704700000048704780
:1010F000CCAF002000487047ACAF002030B5B0F155
:101100000A024FEA900E71F100034EEA817EB0EBC5
:101110000E0061EB91014FEA101E4EEA017E10EBCA
:101120000E0041EB11114FEA102E4EEA016E10EB4A
:101130000E0041EB11214FEA104E4EEA014E10EB2A
:101140000E0041EB1141401841F100014FEAD0007F
:1011500040EA41704FEAD10110EB80054FEA81046B
:1011600044EA907444EB01046D1944EB0404521BEF
:10117000A3414FF0000348BF0A3200D530BD401CE8
:1011800041F1000130BD00002DE9F0411F46044649
:1011900003260168072A01F4006004DB08B116A5E4
:1011A00005E016A503E008B115A500E015A521F09E
:1011B00010002060A069C01EA0610FB1401EA06198
:1011C0002046FFF71BF94FB1D4E90121384690477B
:1011D000206A401C2062C01C206206E0206AFAE7F8
:1011E000D4E9012115F8010B9047761EF8D220466C
:1011F000FFF71AF9BDE8F0814E414E006E616E00B6
:10120000494E4600696E660010B5436913B1AFF3ED
:10121000008001E0FFF73CFE012010BD128800F1C4
:10122000240182840022C2840122EDE711684FF07C
:10123000FF32E9E72DE9F047814616468AB0354886
:1012400078440DC88DE80D0032487844801C03AC0A
:101250000DC884E80D0041F69B300844372190FB0F
:10126000F1F290FBF1F5A5F1800501FB12041B3CA6
:1012700002D56442012000E00020DFF898A08046FB
:101280000027FA44AAF1BE0A0EE0E0070AD032466F
:10129000684607EB470101230AEB810100F06DFB73
:1012A0008DE8070064107F1C002CEED1194F7F449D
:1012B000AE3F19E0E80715D007EB04100DF1180A4E
:1012C00090E80E008AE80E00C068F04201D198193B
:1012D00008903246012306A903A800F04EFB03AB99
:1012E00083E807006D10641C002DE3D14FF001036B
:1012F00032466946B8F1000F03A802D000F028FB7F
:1013000001E000F03AFBC9E90001C9F808200AB081
:10131000BDE8F087B0A00000007B00F080007047BF
:1013200070B516460C46054600F044F8036893F87D
:101330000101012806D0FF2C0FD8185D68B10120EB
:101340002C7070BDD3F807013246214603F2071313
:1013500003442846BDE8704018474FF0FF3070BD89
:1013600000487047ACAF00207546FFF7F9FFAE4666
:1013700005006946534620F00700854618B020B5A1
:10138000FEF7F4FFBDE820404FF000064FF00007E5
:101390004FF000084FF0000B21F00701AC46ACE81D
:1013A000C009ACE8C009ACE8C009ACE8C0098D468A
:1013B0007047000010B5FFF799FE001D10BD00BF7B
:1013C0008966000010B50446AFF300802046BDE8F2
:1013D0001040FEF76ABF00004FF0013C50F8042BAC
:1013E00051F8043B9A4221D1A2EB0C03934313EA38
:1013F000CC1317D150F8042B51F8043B9A4215D165
:10140000A2EB0C03934313EACC130BD150F8042B3B
:1014100051F8043B9A4209D1A2EB0C03934313EA1F
:10142000CC13DBD04FF00000704700BFD01A01BAD8
:10143000B1FA81F101F0180122FA01F0CB40C1F1BB
:101440002001DBB2C0B2C01A2CFA01F3D11A9143C9
:1014500011EAC311E6D170475FEA400C08BF91F072
:10146000000F4FEA8C234FEAC12243EA51514FEA61
:101470001C5018BF00F5F0404FEA300018BF41F093
:1014800000415FEA6C5C00F02980BCF1FF3F08BFBF
:1014900040F080407047130C06BF12044FF0100C50
:1014A0004FF0000C130E04BF12020CF1080C130FC6
:1014B00004BF12010CF1040C930F04BF92000CF155
:1014C000020CD30F04BF52000CF1010C11464FF077
:1014D0000002A0F11F00A0EB0C00704711F0004FBC
:1014E00008BF704731F000413FF4D5AF0B0C06BF89
:1014F00009044FF0100C4FF0000C0B0E04BF090252
:101500000CF1080C0B0F04BF09010CF1040C8B0F3C
:1015100004BF89000CF1020CCB0F04BF49000CF191
:10152000010CCCF12003A0EB0C0022FA03F302FA29
:101530000CF241EA030100F10100704720F07F4CFA
:1015400080EA030023F07F47ACEB070303F57C53ED
:1015500000F0004003F1FF032DE980494FEA154BED
:1015600009B44FEA144325EA0B4E24EA03480FF26C
:10157000042606EB132749083E785FEA320203FB94
:101580000667C7F5000707FB06F64FEA54374FEA30
:10159000D64606F1020607FB066CCCF1005C4FEA6A
:1015A0001C472CEA074C07FB06F40CFB06F504EB82
:1015B00015464FEA961634BF00204FF000404FEA20
:1015C000D13706FB07FC4FEA1C4C0CFB0BF7D21B78
:1015D00003FB0CF761EB07010CFB0EF7B0EB0740C8
:1015E00072EB17420CFB08F734BFA2EB0742B2EBD9
:1015F000074261EB17414FEA0C444FEA910706FBA3
:1016000007FC4FEA1C4C0CFB0BF7B0EBC74072EB2E
:10161000573203FB0CF734BFA2EBC742B2EBC74211
:1016200061EB57310CFB0EF7B0EBC70072EB577252
:101630000CFB08F734BFA2EBC702B2EBC70261EBA9
:101640005771039F4FEA816141EA921104EBCC0488
:101650004FEAD1374FEA826206FB07FC42EA90125A
:101660004FEA80604FEA1C4C0CFB0BF7D21B03FBCC
:101670000CF761EB07010CFB0EF7B0EB074072EBC8
:1016800017420CFB08F734BFA2EB0742B2EB07424C
:1016900061EB17414FEA8C554FEA910704EB9C240C
:1016A00006FB07FC4FEA1C4C0CFB0BF7B0EBC740EA
:1016B00072EB573203FB0CF734BFA2EBC742B2EB1D
:1016C000C74261EB57310CFB0EF7B0EBC70072EB72
:1016D00057720CFB08F734BFA2EBC702B2EBC7028C
:1016E00061EB577115EB4C254FEA816141EA92118C
:1016F0004FEA82624FEAD13742EA901206FB07FCBA
:1017000044F100044FEA80604FEA1C4C0CFB0BF7DD
:10171000D21B03FB0CF761EB07010CFB0EF7B0EBE0
:10172000074072EB17420CFB08F734BFA2EB0742ED
:10173000B2EB074261EB174115EB1C154FEA813103
:1017400041EA92414FEA823242EA90424FEA8030C7
:101750004FEA0C7644F1000448EA03434EEA0B4892
:101760004FF0000EB2EB080C71EB030724BF62468A
:1017700039464EEB0E0E4FF0000B00185241494116
:101780004BEB0B0BB2EB080C71EB03077BF1000B7F
:1017900024BF624639464EEB0E0E4FF0000B001888
:1017A000524149414BEB0B0BB2EB080C71EB0307B9
:1017B0007BF1000B24BF624639464EEB0E0E51EA18
:1017C000020718BF46F0010616EB0E7655F100022F
:1017D00054F1000103D5BDE88901BDE80088BDE8EA
:1017E0008901BDE80048B619524141EB0101A3F15E
:1017F0000103704780807F7E7D7C7B7A7978777665
:1018000076757473727171706F6E6E6D6C6C6B6ADD
:101810006A6968686766666564646363626161607B
:10182000605F5F5E5E5D5D5C5C5B5B5A5A595958F8
:101830005857575656555555545453535252525162
:10184000515050504F4F4F4E4E4D4D4D4C4C4C4BB8
:101850004B4B4A4A4A4949494848484747474746FF
:10186000464645454544444444434343434242423B
:1018700042414141002B9C4630D477002BD01CB50F
:101880004FEA370703B44FF010004FF01001BAF1E0
:10189000000F06D0BCF1000FDCBF40F0080040F0A4
:1018A00008014FF000000FBCBDE810400BF1010B28
:1018B000BBF1010F08BF5FEA170722BF12F1010257
:1018C00011F101014FF0004143F1000300F000402D
:1018D00043EA00007047F9D35708D0E746EA0646C6
:1018E00013F1400F4FEA16461FDD13F1200FDFBF43
:1018F00016430A46002120335B42BED0C3F12007C5
:1019000046EA064602FA07F74FEA164646EA07068F
:10191000C3F1200722FA03F201FA07F721FA03F1D3
:101920004FF0000342EA0702A7E746EA020646EA4A
:1019300006464FEA164646EA0106BCBF46EA064698
:10194000360C4FF000034FF000024FF0000194E717
:101950002DE9804C9A46934670B491E8380007C848
:1019600031EA400C48BF34EA430C03D5FFF7E6FDEB
:10197000FFF780FFF0BCBDE8008C2DE9804C9A4653
:10198000934670B491E8380007C810F0804F08BF44
:1019900013F0804F03D100F005F8FFF76BFFF0BCA8
:1019A000BDE8008C20F07F4780EA030023F07F4CE5
:1019B00007EB0C03A3F57C5300F00040A3F1FE03FA
:1019C00092F0000F00F0B38095F0000F00F07780E8
:1019D0002DE901494FEA11404FEA144621EA004837
:1019E00000FB06FC24EA064708FB06F607FB08F89E
:1019F00000FB07F718EB06484CEB164C4FEA124B6E
:101A000018EB07484FEA15464CEB174022EA0B4EFD
:101A10000BFB06FC25EA06470EFB06F607FB0EFE4F
:101A20000BFB07F71EEB064E4CEB164C4FF0000677
:101A30001EEB074E4CEB174B18EB0B0840F1000068
:101A400018EB0E0B58EB000840F100008F1A4FF016
:101A500000013CBFC943661B14BFB5EB040C002159
:101A60003CBFC943F61B4FEA17444EEA8E0E27EAE5
:101A700004454FEA1C4704FB07622CEA074C05FBB0
:101A800007F70CFB05F604FB0CFC16EB074642EBD4
:101A9000174216EB0C4642EB1C421BEB060658EBBA
:101AA0000202414146EA9E0601D5BDE80189B61908
:101AB000524141EB0101A3F10103BDE801894FEA65
:101AC00014454FEA114724EA054621EA074C05FB75
:101AD00007F406FB07F70CFB06F105FB0CFC11EB0A
:101AE000074144EB17444FEA124711EB0C4144EB1A
:101AF0001C4422EA074C05FB07F206FB07F70CFB28
:101B000006F605FB0CFC16EB074642EB174216EBFC
:101B10000C4642EB1C456A1854F1000148BF70475F
:101B2000B619524141EB0101A3F10103704795F051
:101B3000000F37D04FEA11424FEA144721EA02461C
:101B400024EA074C02FB07F106FB07F70CFB06F43F
:101B500002FB0CFC14EB074441EB17414FEA15471D
:101B600014EB0C4441EB1C4125EA074C02FB07F542
:101B700006FB07F70CFB06F602FB0CFC16EB074610
:101B800045EB174516EB0C4645EB1C42121951F17B
:101B9000000148BF7047B619524141EB0101A3F162
:101BA000010370474FEA14454FEA114724EA0546FE
:101BB00021EA074C05FB07F106FB07F70CFB06F2D1
:101BC0004FF0000605FB0CFC12EB074241EB1741FE
:101BD00012EB0C4251EB1C4148BF7047921841EB8D
:101BE0000101A3F101037047FEE700000248002253
:101BF0008260C26004F0A4BC18000020704700217D
:101C0000818470472DE9F04186B0684601F0C4FA3E
:101C10000024ADF800400F254FF08048ADF8085083
:101C2000ADF802406946404601F020FA0427ADF8BD
:101C30000070ADF80850ADF802406946404601F02A
:101C400015FA00231A460321404601F0F6F9ADF8D3
:101C500012404FF6FF76ADF81060ADF80C408DF8ED
:101C6000144003A9404601F057FB0121404601F012
:101C7000CFF9684601F090FADFF85C80ADF80040DB
:101C8000ADF80850ADF802406946404601F0EEF963
:101C9000ADF80070ADF80850ADF802406946404616
:101CA00001F0E4F900231A460321404601F0C5F98A
:101CB000ADF81240ADF81060ADF80C408DF814404E
:101CC00003A9404601F028FB0121404601F0A0F99C
:101CD00006B0BDE8F081000000040040F8B54825DA
:101CE0008DF8035003240A4EADF800408DF80240F1
:101CF0006946304600F04AF88DF80350C020ADF830
:101D000000008DF802406946304600F03FF8F8BD0B
:101D10000008014010B500F006F8FFF7DFFFBDE84E
:101D20001040FFF76FBF10B50121042000F0B6FE90
:101D30000121084600F09AFE0121BDE81040022072
:101D400000F094BE808CC11304D0C0F30E00A0F547
:101D5000FE40FF38704700001CB507490120CDE95F
:101D600000010023642205A1074805F0A3FBBDE89C
:101D70001C4004F07DBF0000740100207374617288
:101D8000745F7461736B000069630008F0B5CC7810
:101D9000002204F00F03E40601D58C7823430C786D
:101DA0004FF00F0C14F0FF0F4FF0010E1BD0056821
:101DB0000E880EFA02F42640A64210D196000CFAC4
:101DC00006F725EA070703FA06F5CE783D43282EE5
:101DD00002D0482E02D002E0446100E00461521CAF
:101DE000082AE5D305600A88FF2A1CD94468002226
:101DF00002F108060EFA06F50E882E40AE420ED10C
:101E000096000CFA06F7BC4303FA06F7CE783C437B
:101E1000282E00D14561CE78482E00D10561521C94
:101E2000082AE5D34460F0BDF0B5144C002801DA6F
:101E3000E36900E06368450D2E0185B2C0F30157E8
:101E4000B540C0F30342032F05D0C6020AD50326CE
:101E50009640B34307E023F07062636823F0706339
:101E6000636002E0AB4343F0706201B12A43002893
:101E700001DAE261F0BD6260F0BD000000000140E7
:101E80004161704701617047FEE770B506467F23E8
:101E900000211A46084600F03DFA2C2000F08CFA8A
:101EA00000250024304600F071FA641C802CF9D320
:101EB0006D1C802DF5D370BD2DE9FC4F98469146E1
:101EC0000E460546DDF82CB0ABE080282ED2202847
:101ED00002D9203880B200E000208246002707EBBC
:101EE0000A10002400905249095C8020E040014221
:101EF00005D0F01981B2281980B24A4606E0C145E2
:101F000006D0F01981B2281980B2424600F094F848
:101F1000641CE4B2082C01D20098E4E77F1CFFB2F5
:101F2000102FDCD30BF1010B083579E00020009075
:101F300000EB800101EB40103E499BF8002011F8B6
:101F40001030934263D101EB4000019041789BF83F
:101F5000010081425BD10024019904EB4400002779
:101F600001EB000A80209AF80210F840014205D0E7
:101F7000301981B2E81980B24A4606E0C14506D060
:101F8000301981B2E81980B2424600F055F87F1C42
:101F9000FFB2082FE6D300279AF803108020F840FC
:101FA000014206D0301981B2E819083080B24A46A1
:101FB00007E0C14507D0301981B2E819083080B276
:101FC000424600F039F87F1CFFB2082FE4D3002707
:101FD0009AF804108020F840014206D0301981B2EE
:101FE000E819103080B24A4607E0C14507D03019E1
:101FF00081B2E819103080B2424600F01DF87F1C13
:10200000FFB2082FE4D3641CE4B2182CA4D30098C8
:10201000401C80B2009014288AD30BF1020B1835B3
:10202000ADB29BF8000000287FF44FAFBDE8FC8FF5
:102030000A8D0008669F000810B514464A1C93B22A
:10204000421C92B200F066F92046BDE8104000F054
:102050009DB9000038B50121082000F01FFD4FF4A4
:102060008070ADF8000010248DF803400320154D5A
:102070008DF8020069462846FFF788FE6101ADF839
:10208000001069462846FFF781FE4020ADF80000A9
:1020900069462846FFF77AFE2020ADF80000694621
:1020A0002846FFF773FE8020ADF8000069462846F9
:1020B000FFF76CFEADF8004069462846FFF766FE64
:1020C00038BD0000000C014010B5FFF7C3FF00F061
:1020D0000DF9112000F070F9782001F0B3FFB12064
:1020E00000F06AF9012000F041F92C2000F03EF9DF
:1020F0002D2000F03BF9B22000F05EF9012000F045
:1021000035F92C2000F032F92D2000F02FF9B32002
:1021100000F052F9012000F029F92C2000F026F9F6
:102120002D2000F023F9012000F020F92C2000F0F0
:102130001DF92D2000F01AF9B42000F03DF9072018
:1021400000F014F9C02000F037F9A22000F00EF9D9
:10215000022000F00BF9842000F008F9C12000F003
:102160002BF9C52000F002F9C22000F025F90A2061
:1021700000F0FCF8002000F0F9F8C32000F01CF992
:102180008A2000F0F3F82A2000F0F0F8C42000F0D4
:1021900013F98A2000F0EAF8EE2000F0E7F8C520F5
:1021A00000F00AF90E2000F0E1F8362000F004F902
:1021B000C82000F0DBF8E02000F0FEF80F2000F06F
:1021C000D5F81A2000F0D2F80F2000F0CFF8182030
:1021D00000F0CCF82F2000F0C9F8282000F0C6F855
:1021E000202000F0C3F8222000F0C0F81F2000F0EB
:1021F000BDF81B2000F0BAF8232000F0B7F8372014
:1022000000F0B4F8002000F0B1F8072000F0AEF8BC
:10221000022000F0ABF8102000F0A8F8E12000F058
:10222000CBF80F2000F0A2F81B2000F09FF80F2041
:1022300000F09CF8172000F099F8332000F096F891
:102240002C2000F093F8292000F090F82E2000F0C8
:102250008DF8302000F08AF8302000F087F839201F
:1022600000F084F83F2000F081F8002000F07EF8B4
:10227000072000F07BF8032000F078F8102000F031
:1022800075F82A2000F098F8002000F06FF8002080
:1022900000F06CF8002000F069F87F2000F066F88C
:1022A0002B2000F089F8002000F060F8002000F0FA
:1022B0005DF8002000F05AF89F2000F057F8F02059
:1022C00000F07AF8012000F051F8F62000F074F8E0
:1022D000002000F04BF83A2000F06EF8052000F0E6
:1022E00045F8BDE81040292000F066B810B5084C4C
:1022F0000020C4F89801642004F5CC7401F0A2FE1B
:1023000001202060BDE81040322001F09BBE00009B
:1023100000802142F0B507461C4616460D462A208D
:1023200000F04AF8002000F021F8BF1CF8B200F0DD
:102330001DF8002000F01AF8B61CF0B200F016F8F4
:102340002B2000F039F8002000F010F8ED1CE8B266
:1023500000F00CF8002000F009F8E41CE0B200F0F6
:1023600005F8BDE8F0402C2000F026B830B5064C4A
:102370000021C4F89C110125C4F8945104F5CA74D5
:1023800000F0EEFBA56030BD0080214270B5094C25
:1023900005460020C4F89C010126C4F89461280A6F
:1023A00004F5CA7400F0DCFBE8B200F0D9FBA660CB
:1023B00070BD00000080214210B5064C0021C4F819
:1023C0009C11C4F8941104F5CA7400F0C9FB0120F3
:1023D000A06010BD0080214208B50121042000F05A
:1023E0005DFB10208DF803000001ADF80000032014
:1023F0008DF8020069460248FFF7C8FC08BD0000DE
:1024000000080140074A10B5111F081F02F01CFC0C
:10241000044994398A1D0870091DBDE81040881EC2
:1024200000F002B8300100207CB514460D46064687
:102430006B4606224321682000F0ABF900280BD13F
:10244000BDF8001049BA3180BDF8021049BA2980A0
:10245000BDF8041049BA21807CBD00000C4900B5CC
:102460000022C1F8A8210B48036823F470430360DD
:10247000036843F440530360C1F8AC2101F5D47103
:1024800000F00AF80120086000F006F80A6000BDBC
:1024900000802142040C01400020401C10F0FF008D
:1024A000FBD0704738B50121082000F0F7FA4FF44F
:1024B0004064ADF8004010208DF803000320064D65
:1024C0008DF8020069462846FFF760FC2146284641
:1024D000FFF7D8FC38BD0000000C01400C4900B5E6
:1024E0000022C1F8A8210B48036823F4704303605D
:1024F000036843F4405303600123C1F8AC3101F594
:10250000D471FFF7C9FF0B60FFF7C6FF0A6000BD7B
:1025100000802142040C014070B506461448002496
:10252000016821F470410160016841F400410160DB
:10253000104A214623460125C2F8A831FFF7ACFF17
:10254000C2F8A8516006040ED2F82C0108B1641C30
:10255000E4B2FFF7A1FF491CC9B20829ECD31EB1B0
:10256000FFF77CFF204670BDFFF7B8FFFAE70000D9
:10257000040C014000802142024630B51048016839
:1025800021F470410160016841F4405101600D4B3C
:102590000024C3F8A84121460125D009C3F8AC01A5
:1025A0005006020EC3F8A851FFF776FFC3F8A84102
:1025B000FFF772FF491CC9B20829EED330BD0000F5
:1025C000040C0140008021420C4800B5016821F450
:1025D00070410160016841F44051016008490120E7
:1025E000C1F8AC01C1F8A80101F5D471FFF754FF9F
:1025F00000224A60FFF750FF0A6000BD040C014052
:10260000008021420D4800B5016821F4704101604D
:10261000016841F44051016009490020C1F8A80156
:10262000C1F8AC0101F5D471FFF736FF0120086055
:1026300048605DF804EBFFF72FBF0000040C014079
:1026400000802142124800B50268002122F4704245
:102650000260026842F4004202600E4A0123C2F89E
:10266000AC31FFF719FFC2F8A831FFF715FF07E0FB
:10267000491CC9B2FA2903D9FFF7C4FF012000BDE4
:10268000D2F82C010028F3D1C2F8A80100BD000047
:10269000040C01400080214208B50121084600F0E9
:1026A000FDF90121042000F0F9F94FF40040ADF8E4
:1026B000000010208DF8030003208DF80200694609
:1026C0002248FFF763FB01212148FFF7ADFB2149B9
:1026D0000020C1F8BC01FFF7E5FE80216B2000F06F
:1026E000C6F8642001F0AEFC00216B2000F0BFF8BA
:1026F000032000F088F8002000F080F8322000F07D
:102700009FF80021382000F0B2F800216A2000F084
:10271000AEF80021232000F0AAF88021372000F035
:10272000A6F8752000F018F8682801D0012008BD2F
:1027300001216B2000F09BF800216C2000F097F83D
:10274000322000F07DF8002008BD000000080140A4
:10275000000230000000214210B50446FFF734FFAC
:10276000D020FFF709FFFFF76DFF2046FFF704FFBA
:10277000FFF768FFFFF728FFD120FFF7FDFEFFF707
:1027800061FF0020FFF7C8FE0446FFF73BFF20462D
:1027900010BD2DE9F0411C4615460F460646FFF7D1
:1027A00013FF7006000EFFF7E7FEFFF74BFF20B1A7
:1027B000FFF728FF0120BDE8F0813846FFF7DCFE77
:1027C000FFF740FFFFF700FF012000EB4600C0B21B
:1027D000FFF7D2FEFFF736FF08E0012D0CD00120F5
:1027E000FFF79AFE6D1E04F8010BEDB2002DF4D137
:1027F000FFF708FF0020DEE70020F1E7C006010E2A
:102800001C2000F034B8C006010E1B2000F02FB8C9
:10281000BC2801D3012110E0622801D302210CE081
:102820002A2801D3032108E0142801D3042104E05D
:102830000A2801D3052100E006211A2000F017B86C
:1028400010B504464FF47A70844201D9044602E080
:10285000042C00D20424B0FBF4F0401EC1B21920B5
:1028600000F005F86008BDE81040FFF7D1BF70B573
:102870000C460546FFF7A8FED020FFF77DFEFFF7C8
:10288000E1FE50B92846FFF777FEFFF7DBFE204652
:10289000FFF772FEFFF7D6FE18B1FFF7B3FE012077
:1028A00070BDFFF7AFFE002070BD2DE9F0411D4661
:1028B00016460C460746FFF787FE7806000EFFF720
:1028C0005BFEFFF7BFFE60B92046FFF755FEFFF73E
:1028D000B9FE00240CE0285DFFF74EFEFFF7B2FEC4
:1028E00020B1FFF78FFE0120BDE8F081641CE4B247
:1028F000B442F0D3FFF786FE0020F5E710B50F4C89
:102900000021012220780E4B01280AD002280BD08A
:1029100003280CD004280DD0052801D12170DA70CD
:1029200010BD21701A7110BD21701A7010BD217078
:102930005A7010BD21709A7010BD00006B0100200C
:1029400028000020FEE7000070B5164C012909D0D0
:10295000022925D1002818DB02F07EFF054602F08F
:1029600037F917E0002805DB02F076FF054602F094
:10297000FFF804E002F070FF054602F009F9A9B281
:102980002046BDE8704000F099BC02F065FF0546A6
:1029900002F00EF9A9B22046BDE8704000F090BCEC
:1029A00070BD0000002C014070B50F4C01280FD005
:1029B000022817D10D4D2846FFF7C4F9414201EB1B
:1029C0008100400060612846BDE87040FFF717B9FC
:1029D0004FF080452846FFF7B5F900EB8000400036
:1029E0002061F0E770BD00009C0000200004004062
:1029F0007047000030B50F23C27801780125F2B18D
:102A0000144A126801F1E02102F4E062C2F5E062CA
:102A1000120AC2F10404D3404278A24084781C40D8
:102A20001443220181F80024007800F01F018D403A
:102A30004009800000F1E020C0F8005130BD01F0F5
:102A40001F0085404809800000F1E020C0F8805157
:102A500030BD00000CED00E0024908430249086067
:102A6000704700000000FA050CED00E0044A002960
:102A7000D16901D0014300E08143D161704700007A
:102A800000100240044A0029116901D0014300E00E
:102A9000814311617047000000100240044A002980
:102AA000916901D0014300E08143916170470000CA
:102AB00000100240044A0029D16801D0014300E01F
:102AC0008143D160704700000010024030B5204AB9
:102AD0005168204B11F00C0103D0042901D00829C2
:102AE00001D0036012E05168536801F470114FF097
:102AF000020413F4803F04EB914102D053689B031E
:102B000001D5154B00E0134B5943016051680F2369
:102B100003EA1111114B5C5C0168E14041605468AB
:102B2000072505EA14241C5D21FA04F48460546826
:102B300005EAD4241B5DD940C1605268032303EA2F
:102B40009232064B1B1F9A5CB1FBF2F1016130BD62
:102B50000010024000127A0000093D00A001002090
:102B600030B5082100230A4A0124050602D5C2F81F
:102B7000A44101E0C2F8A431C2F8A031C2F8A041DA
:102B80004006000E491E11F0FF01EED130BD0000DD
:102B9000008021420CB50022264800920192016873
:102BA00041F4803101604FF4A063016801F4003109
:102BB00001910099491C0091019911B9009999421C
:102BC000F3D10168890333D5012101911A490A68BB
:102BD00042F010020A600A6822F003020A600A68E2
:102BE00042F002020A604168416041684160416808
:102BF00041F480614160416821F47C114160416889
:102C000041F4E8114160016841F0807101600168A0
:102C10008901FCD5416821F003014160416841F020
:102C2000020141604168C1F381010229FAD10CBD62
:102C300001920CBD001002400020024070B5244CEF
:102C4000B4F9040005F04AFE04F180050146E86885
:102C500004F0B8FE6064D4E9040103F00FFC2064C2
:102C6000B4F9060005F03AFE0646A06D05F036FE02
:102C7000314604F0C3FEA064D4E910210A441118BF
:102C8000101A4FF4E152C4E913105342914201DB90
:102C9000E26402E0994200DCE364904201DB2265D9
:102CA00002E0984200DC23650A49E868884202DABB
:102CB0000949884202D30020E06420650221E06CCB
:102CC000FFF742FE206DBDE870400121FFF73CBEDA
:102CD0009C0000200000A0420000A0C24FF0E021B4
:102CE0000428086903D020F004000861704740F010
:102CF0000400FAE710B504F009FC012803D0BDE890
:102D0000104004F093B810BD0F4810B5016841F0B1
:102D10000101016041680D4A1140416001680C4A9F
:102D200011400160016821F480210160416821F4B3
:102D3000FE0141604FF41F018160FFF72BFF054941
:102D40004FF00060086010BD001002400000FFF866
:102D5000FFFFF6FE08ED00E070B5048C24F00104DE
:102D60000484058B048C4FF6FF7606EA03131343A5
:102D700025F0F3050E4A2B4390420ED00D4A9042A7
:102D80000BD0B0F1804F08D00B4A904205D00B4ACF
:102D9000904202D00A4A904202D124F0020201E09D
:102DA00024F00A020A4342F001010383018470BD4A
:102DB000002C0140003401400004004000080040A5
:102DC000000C0040F0B5048C24F010040484078B40
:102DD000048C4FF6FF7527F4734705EA03333B4332
:102DE00005EA02221A43114B05EA011698420ED059
:102DF0000F4B98420BD0B0F1804F08D00D4B98424A
:102E000005D00D4B984202D00C4B984205D124F0CE
:102E10002001314341F0100104E024F0A0030B43F2
:102E200043F0100102830184F0BD0000002C01403A
:102E3000003401400004004000080040000C004045
:102E400070B588B0012140F60400FFF727FE182076
:102E50008DF81F00C001ADF81C0003208DF81E0086
:102E600007A92E48FEF792FF2D4E0122114630464B
:102E700000F09AF900244FF4E155ADF81450ADF884
:102E80001040ADF81640ADF812408DF8184004A976
:102E9000304600F041FA0121304600F0ACF86020E5
:102EA000ADF800000120ADF80200ADF80440ADF827
:102EB0000C40ADF80840ADF80E40ADF80640ADF856
:102EC0000A406946304600F077F90821304600F0A4
:102ED000B1F96946304600F0B3F90821304600F0F8
:102EE000E1F92946304600F0E7F94FF47A742146BB
:102EF000304600F0E3F92146304600F0E1F90122C6
:102F00001146304600F050F90121304600F080F8BB
:102F10000121304600F086F808B070BD000801407D
:102F2000002C014010B50C4C2088401C2080FFF77D
:102F300069FA2088052807D3002020800120FFF7A8
:102F400033FD0220FFF730FDFFF778FEBDE81040AB
:102F50000121024800F059B818000020001000407C
:102F60003EB50F4C0121204600F04FF82421ADF86A
:102F700004101420ADF800000021ADF80610ADF8E3
:102F800002106946204600F0C7F90122114620468A
:102F900000F00AF90121204600F03AF83EBD000099
:102FA0000014004005488168C268491C42F10002D3
:102FB0008160C2600121024800F027B8180000209B
:102FC0000014004008B54FF44070FFF745FD37206E
:102FD0008DF8000003208DF8010000208DF802001C
:102FE00001208DF803006846FFF704FD08BD0121AC
:102FF0002020FFF73BBD0029018802D041F080016D
:1030000001E021F0800101807047C94301827047CF
:103010000029018802D041F0010101E021F0010105
:1030200001807047002930F8441F02D041F400416C
:1030300001E0C1F30E010180704770B50589048B72
:10304000068C25F007050D434FF6FC410C4040F27D
:1030500001110C434FF6FF7101EA031126F022061D
:103060001143314305810483018470BD2DE9F84F7C
:103070000D4604460888434FDFF80CC1DFF80C8189
:10308000DFF80C914988AA882B894FF0804A48B311
:10309000042830D04FF6FF760828934634D0208C91
:1030A0009E4620F480502084A38B208C06EA0132B7
:1030B000009223F4734306EA0B221A4306EA0E3306
:1030C0001343BC420AD0644508D0544506D0444559
:1030D00004D04C4502D02F4A944245D120F40050F0
:1030E000009943E02046FFF737FEE9882046BDE817
:1030F000F84F00F0E8B82046FFF764FEE988204664
:10310000BDE8F84F00F0E7B8208C20F480702084F0
:10311000B4F81CE0208C06EA031306EA01222EF024
:10312000F30E43EA0B0343EA0E030092BC420AD0BB
:10313000644508D0544506D0444504D04C4502D0DF
:10314000144A944203D120F40070009901E020F465
:103150002060084340F48070A3832084E9882046DF
:10316000BDE8F84F00F0C3B820F40240084340F433
:103170008050A3832084E9882046BDE8F84F00F002
:10318000BEB80000002C01400034014000040040A3
:1031900000080040000C0040002101804180012215
:1031A0008280C18001817047002A828901D00A4350
:1031B00000E08A438281704770B5028C22F48072ED
:1031C0000284028C8388848B0D8824F07304254349
:1031D0000E894FF6FF7422F4007204EA06261643A5
:1031E0004A8804EA02223243104EB04202D0104E06
:1031F000B04215D122F400664A8923F4405304EA10
:103200000222324322F480668A8804EA0222324390
:103210008E8904EA06161E43CB8904EA031333435E
:1032200083808583C9888187028470BD002C01401A
:1032300000340140828B22F008020A4382837047E7
:1032400070B5028C22F480520284058C8288838BB4
:103250000C8823F4E6464FF6FF7303EA0424344354
:1032600025F400560D8903EA053535434E8803EAF7
:1032700006362E43094DA84202D0094DA84205D179
:1032800022F480458A8903EA82122A438280848359
:10329000C988A0F84010068470BD0000002C0140D1
:1032A00000340140828B4FF6FF7322F4006203EA80
:1032B0000121114381837047818570478187704761
:1032C000A0F840107047028B22F00C020283028BA0
:1032D0000A4302837047028B22F440620283028B0E
:1032E0004FF6FF7303EA01210A4302837047828B82
:1032F00022F00C028283828B0A4382837047828B86
:1033000022F440628283828B4FF6FF7303EA01212D
:103310000A4382837047000030B502881B4C1C4D65
:10332000A0420DD0A8420BD0B0F1804F08D0194B6D
:10333000984205D0184B984202D0184B984203D1BE
:1033400022F070034A881A43154B984206D0154B59
:10335000984203D022F44073CA881A4302808A88B4
:1033600082850A880285A0420AD0A84208D00E4A67
:10337000904205D00D4A904202D00D4A904201D1B0
:10338000097A01860121818230BD0000002C0140B4
:10339000003401400004004000080040000C0040E0
:1033A0000010004000140040004001400044014073
:1033B000004801402DE9F047FFF7A0FA2E4A2F48B8
:1033C0002F4C13792F4D304EDFF8C0904FF000088E
:1033D0004FF48071012B18D013784FF07E57012BDA
:1033E00020D05378012B2AD0907801283DD0D07876
:1033F000012808D182F80380D06800F5C8702060E9
:103400002F60C6F80080BDE8F08782F80480FEF7E0
:1034100037FDC4F80080C5F80080C6F80080C9F800
:103420000080F0E782F80080FEF72CFDD9F800005C
:1034300005F0C2F8164A174B04F04EFB0BE082F879
:103440000180FEF71DFDD9F8000005F0B5F8124A1D
:10345000124B04F0C7FF04F00DFBC9F80000C4F8DC
:1034600000802F60C6F80080CDE782F80280906867
:10347000A0F5C870C3E70000280000200008014044
:10348000F40000201001002014010020FC000020A6
:103490009A9999999999F93FB81E85EB51B8FA3FD5
:1034A00010B50A4C2021204600F054F900280CD019
:1034B000204600F0E3F90146204600F0E3F98021C0
:1034C000204600F047F90028F9D010BD003801402F
:1034D000F8B51E4C002640F225512046009600F01B
:1034E00040F9002830D0204600F0C8F9C4B2214687
:1034F000174800F0C7F9174D412C09D0688800041F
:1035000006D4688814490144401C68800C7003E0AC
:10351000688840F40040688010480068002813D094
:103520002978491CC9B2297002290DD1694603F0D6
:1035300019FF009838B10A494FF080500860BFF376
:103540004F8FBFF36F8F2E70F8BD00000044004016
:10355000003801406A010020940200209001002000
:1035600004ED00E070B5204C608800043AD51FA13E
:103570002048FDF7DDF8204E4FF4807528B129462C
:103580003046FEF77DFC012060701CA11948FDF754
:10359000CFF828B129463046FEF774FC022060704F
:1035A00017A11448FDF7C4F828B129463046FEF7A4
:1035B00069FC0320607014A10E48FDF7B9F808B14A
:1035C0000420607012A10B48FDF7B2F808B1052085
:1035D000607000206080BDE870404FF416710548AF
:1035E000FDF750B970BD00006A01002073746F7060
:1035F000000000009402002000080140676F0000F6
:103600006261636B000000006C656674000000007E
:1036100072696768740000000029818902D041F452
:10362000005101E021F400518181704710B586B04E
:1036300001210420FFF732FA01218803FFF72EFA57
:103640004FF40070ADF8100018208DF8130003201F
:10365000214C8DF8120004A92046FEF797FB211596
:10366000ADF8101004218DF8131004A92046FEF7C0
:103670008DFB4FF4E13000900020ADF80400ADF870
:103680000600ADF80800ADF80C000C20134CADF8A6
:103690000A006946204600F09BF84FF44070FFF79F
:1036A000DBF925218DF8141006208DF81500012175
:1036B0008DF816108DF8171005A8FFF79BF9012259
:1036C00040F22551204600F06BF801212046FFF71B
:1036D000A3FF06B010BD0000000801400038014003
:1036E000174910B588420AD101218C032046FFF703
:1036F000E1F92046BDE810400021FFF7DBB9114990
:10370000884202D101214C0410E00F49884202D1C5
:1037100001218C040AE00D49884202D10121CC0428
:1037200004E00B4988420AD101210C052046FFF72D
:10373000A9F92046BDE810400021FFF7A3B910BD4C
:10374000003801400044004000480040004C004068
:10375000005000400246002012880A4200D001209A
:10376000704770B501F01F0501260024C1F3421314
:1037700006FA05F2012B0FD0022B0FD0838A4FEAF5
:1037800011210088134206FA01F600EA060001D072
:1037900000B10124204670BD8389F0E7038AEEE77B
:1037A00010B5C1F3421301F01F040121A140012B08
:1037B00007D0022B07D01430002A026805D00A4334
:1037C00004E00C30F8E71030F6E78A43026010BDE1
:1037D00030B50446008A85B00D464CF6FF710840AE
:1037E000E98801432182A0894EF6F3110840A98897
:1037F0002A8911436A8902431143A181A08A4FF6A5
:10380000FF410840A9890143A1826846FFF75EF99C
:103810001948844201D1039800E00298A189090463
:1038200000EBC00101EB0010296801D5490000E060
:103830008900B0FBF1F06422B0FBF2F109010B0941
:103840006FF018056B4300EB8300A3891D044FF054
:10385000320306D503EBC000B0FBF2F000F0070026
:1038600005E003EB0010B0FBF2F000F00F0008439E
:10387000208105B030BD0000003801408088C0F3D1
:1038800008007047C1F3080181807047FEE74900D6
:1038900050EAC12018BF04204A0D18BF40F00100B3
:1038A00040F2FF72B2EB515F08BF40F00200012806
:1038B00008BF052070472DE9F0414F1E00EBC701FE
:1038C0000446D1E9000115461E4637F006020DD028
:1038D0002A46334604F096FB7F1E04EBC703D3E968
:1038E000002304F0F9F837F00602F1D1022F25D0B9
:1038F000042F13D0062F18BFBDE8F0812A463346A7
:1039000004F080FBD4E90A2304F0E6F82A463346A3
:1039100004F078FBD4E9082304F0DEF82A463346A5
:1039200004F070FBD4E9062304F0D6F82A463346A7
:1039300004F068FBD4E9042304F0CEF82A463346A9
:1039400004F060FBD4E9022304F0C6F82A463346AB
:1039500004F058FBD4E90023BDE8F04104F0BCB802
:10396000012205F066B904F0B7B8002213461046EC
:10397000114604F06DB90000024A0020110705F05D
:1039800058B9000001FDFFFF30380A2801D201209C
:1039900070470020704770472DE9F04D8D4F21F0A2
:1039A000004A86B005460C46BA452ADBAAEB07005A
:1039B00028430AD08848824501DC1AD1CDB106B02F
:1039C0002846BDE8F04DFFF7CBBF844A844B28461C
:1039D00004F018FB07460E46824A834B28462146D0
:1039E00004F010FB06B03A463346BDE8F04D04F053
:1039F00073B80120FCF771FF06B0BDE8F04DFFF78A
:103A0000B4BF7A48824542DABAF1795F0BDA2846C8
:103A1000FFF73DFF042808BFFFF7AEFF284606B0BA
:103A20002146BDE8F08D2A460B46104604F0EAFA1E
:103A3000834602466E480E460B4606217844FFF741
:103A40003AFF5A46334604F0DDFA804669488A4612
:103A50005A46334604217844FFF72DFF5A46334631
:103A600004F0D0FA00223B4604F036F802460B463A
:103A70004046514604F0ECF82A46234604F0C2FAC8
:103A800006B02A462346BDE8F04D04F025B8284686
:103A900024F0004100223D463B4604F0B1FB4FF0CC
:103AA000FF3205F0C6F80646024653480F460B465D
:103AB00006217844FFF7FFFE32463B4604F0A2FAA7
:103AC000CDE900014D4832463B4604217844FFF7DA
:103AD000F2FE32463B4604F095FA00222B4603F0F4
:103AE000FBFF834602913046394602F017FC8046C0
:103AF00043480D46504517DCDDE900015A46029B5C
:103B000004F0A6F842462B4604F07CFA42462B46C7
:103B100003F0E2FF012205F08CF8304A304B04F04C
:103B200061FC304A304B4CE04FF0000A52460B46E5
:103B3000404603F0D1FFCDE9031052462B46104614
:103B4000194604F05FFA32463B4604F059FBDDE9C2
:103B5000033204F07DF806460F46DDE900015A46BF
:103B6000029B04F075F883460091012230463946E5
:103B700005F05FF8194A1A4B04F042FB06460F465F
:103B800001224046294605F054F85A46009B04F0AD
:103B900039FA32463B4604F025FC06460F46012220
:103BA0005046294605F045F80E4DDFF858802A4664
:103BB000434604F025FB32463B4604F021FB2A46EF
:103BC000434604F01DFB002CD8BF81F0004106B035
:103BD000BDE8F08D0000F03F0000F07F075C14337B
:103BE00026A6913C182D4454FB21F93F0000E03FEC
:103BF0004077000056770000CA760000E0760000AB
:103C00003333EF3FFB21E93F2DE9F84F04460D46E2
:103C100021F0004000917349814211DC72498842D1
:103C200001DC06D12CB120462946BDE8F84FFFF74C
:103C300097BE6E48002DCCBF6D496E49BDE8F88F28
:103C40006D49814211DD6D498142D8BF4FF0FF3689
:103C50006DDD20462946FFF71AFE042808BFFFF74E
:103C60008BFE20462946BDE8F88F6549654F25F053
:103C70000045814233DD6449814219DD0026324628
:103C80004FF080432046294603F026FF80468A46AF
:103C900001222046294604F0CCFF00223B4604F0D6
:103CA000A1FB4246534603F0D3FF04460D463EE0D7
:103CB00001260022BA463B462046294603F00CFF67
:103CC00080460F46002253462046294604F08AFBD0
:103CD00042463B4603F0BCFF04460D4627E04B49F5
:103CE00081421BDDDFF828A1022600225346204630
:103CF000294604F087F900223B4603F0EDFE80469A
:103D00000F46002253462046294604F06BFB4246EC
:103D10003B4603F09DFF04460D4608E0032622467D
:103D20002B4600203B4903F093FF04460D462246F4
:103D30002B461046194604F065F98B46824602462A
:103D40000B4604F05FF907460246334888460B46A7
:103D500006217844FFF7AFFD52465B4604F052F966
:103D600082462E488B463A46434605217844FFF763
:103D7000A2FD3A46434604F045F902460B46002EA2
:103D8000504659460CDA03F0A7FE22462B4604F0B3
:103D900039F901B022462B46BDE8F04F04F030BAA5
:103DA00003F09AFE22462B4604F02CF91C4A7A4472
:103DB00002EBC603D3E9002304F014FB22462B4692
:103DC00004F010FB174A7A4402EBC603D3E9002340
:103DD00004F016FA009A002AB8BF81F00041BDE84D
:103DE000F88F0000000010440000F07F182D4454AC
:103DF000FB21F93FFB21F9BF0000DC3F0000203E22
:103E00000000F33F0000F03F0000E63F0080034069
:103E10000000F83F0000F0BFEA740000A874000042
:103E2000467400000E7400002DE9F04D9446CCF16C
:103E3000000423F000464CEA0404594F46EAD474C7
:103E40009A46884621F00042BC4206D8454240EAE4
:103E5000050442EAD474BC4204D9BDE8F04D624680
:103E6000FFF781BDAAF14055A5F17F6555EA0C0425
:103E70000BD0022404EAAA744A4DDFF82CE144EA8C
:103E8000D87452EA000B04D00CE0BDE8F04DFFF707
:103E9000BBBE002C14BF012CBDE8F08D022C30D02D
:103EA000032C32D056EA0C0B0AD0BE4220D1BA42C3
:103EB00009D126F0804622F080423346114617E0B1
:103EC00000291ADB25E0DFF8E4B0FB44002C04BF36
:103ED000DBE90001BDE8F08D012C02BFDBE9000148
:103EE00081F00041BDE8F08D022C0AD0032C0CD0EB
:103EF000BA4212D1B8F1000F0BDA2A482C49BDE8BA
:103F0000F08D28462B49BDE8F08D28467146BDE866
:103F1000F08D24482849BDE8F08D921B12153C2AEB
:103F2000C4BF204F244E10DCBAF1000FBEBF12F107
:103F30003C0F00273E4608DB624603F089FE21F075
:103F40000041FFF761FE07460E4694B1012C08BF01
:103F500086F000460DD0194A194B022C38463146DE
:103F600015D004F03FFA2A46BDE8F04D114B04F09D
:103F700039BA002213463846314603F0C1FF04BF68
:103F80000220FCF7AAFC38463146BDE8F08D04F06B
:103F900029FA2A46BDE8F04D064B04F031B900007D
:103FA0000000F07F182D4454FB2109C0A2730000CB
:103FB000FB21F9BFFB210940FB21F93F075C1433CA
:103FC00026A6A13C38B501210820FEF767FD102088
:103FD0008DF803004FF20800ADF800000320064CF6
:103FE0008DF8020069462046FDF7D0FE08212046E4
:103FF000FDF748FF38BD0000000C014010B504205B
:10400000FEF76CFE0C480D490D4A0068B0FBF1F359
:10401000B0FBF1F14FF47A704143137001205080EE
:104020004FF0E020026942F0020202614161016941
:1040300041F00101016110BD0000002040420F006D
:104040009401002070B5044603F060FA01280CD0FA
:10405000094D6888844203D3B4FBF0F002F0A8FC59
:104060006888B4FBF0F100FB11444FF47A706043B0
:10407000BDE8704000F002B89401002070B54FF028
:10408000E02500216C69094AAB6912785043AA699E
:104090009A42FCD002D2A3EB020302E0A4EB020698
:1040A0003344194413468142F1D370BD940100207A
:1040B00070B5054600244FF47A7603E03046FFF7EA
:1040C000DDFF641CAC42F9D370BD08B560B120209F
:1040D0008DF8000028208DF8010030208DF80200B6
:1040E00038208DF8030004E0A32204216846FCF781
:1040F000C1FB6A46042140F69E2001F083FB01F0DB
:10410000BFF808BD3EB5044602208DF80000CA2065
:104110008DF80100E3208DF8020009208DF80300DE
:104120006A460421682001F06DFBA3208DF8000091
:10413000610609D5C0218DF80110C8218DF8021043
:10414000C2218DF8031005E08DF801008DF8020002
:104150008DF8030014F4C07F09D0C4218DF8041039
:10416000CC218DF80510C6218DF8061005E08DF8DC
:1041700004008DF805008DF806008DF808008DF814
:1041800007008DF809006A460A2140F6A72001F0D1
:1041900039FBA0074FF0D80503D020208DF8000090
:1041A00001E08DF800506A46012140F6B62001F08A
:1041B00029FBA00601D5012000E0002000F090F8C6
:1041C00014F4C07F1ED0E0050AD5B2208DF800009F
:1041D0008B208DF80100B6208DF802009B2009E0AD
:1041E000B0208DF8000080208DF80100B4208DF8FB
:1041F000020090208DF803006A46042140F6A220B8
:1042000001F000FBE0074FF40B6323D0F8208DF89A
:1042100000006A460121184601F0F4FAFA2107204D
:1042200000F078FA072000F043FA012000F060FA6D
:10423000642000F003FB4FF4FA7000F00FFBC8217C
:10424000254800F0FDF9282000F012FA0A2000F0BD
:104250001FFA06E08DF800506A460121184601F069
:10426000D1FAA00703D5D9208DF8000001E08DF820
:1042700000506A46012140F23D7001F0C3FA600728
:1042800001D5012000E0002000F046F8E00601D54D
:10429000012000E00020FFF718FF104D44F0080057
:1042A000688100F0EDFF0020A873600601D50620AC
:1042B000A87314F4C07F02D0A87B801DA87314F0EB
:1042C000140F02D0A87B1030A873A00702D0A87BDF
:1042D000001DA87300203EBD09E3CA02840200202D
:1042E0000EB54FF4976308B105A000E007A007C81A
:1042F0008DE807006A460921184601F083FA0EBDD1
:10430000B8AAB38DB4980D355D000000B8AAAAAA6A
:10431000B088C3C5C700000008B560B1C0208DF8E3
:104320000000C2208DF80100C4208DF80200C620D4
:104330008DF8030004E08B2204216846FCF79AFA0A
:104340006A46042140F6982001F05CFA00F098FFDC
:1043500008BD0000C8234FF48062024940F6F630E1
:1043600000F06EBE34A500082DE9FF4F89B0164657
:10437000DDE916520024DFF854810F4681462C8077
:10438000A24698F80E00694600F008FF4FF0FF3B88
:1043900018B158460DB0BDE8F08FB8F80A0010F01B
:1043A000140F4CD0BDF800109DF8022049BA090442
:1043B00041EA022C9DF803104CEA010CC6F800C03B
:1043C000BDF804109DF8062049BA090441EA022309
:1043D0009DF807100B437360BDF808109DF80A2084
:1043E00049BA090441EA02219DF80B201B1411432C
:1043F000B160BDF80C209DF80E4052BA120442EA9A
:1044000004229DF80F4009142243F2604FEA2C4623
:1044100012147643494303FB036302FB0211194460
:104420001024A1F17061B1F1007F04D900F028FFE0
:10443000A5F800A0ADE7298841F4807129804106E4
:104440006A460ED51119A41D0B885BBA3B804B88B8
:104450005BBA7B80898849BAB980298841F0080114
:10446000298010F4C07F11D01119A41D0B885BBAEC
:10447000A9F800304B885BBAA9F80230898849BA9C
:10448000A9F80410298841F070012980800718D00C
:104490001444E07800F0C00500F03F016078C007E8
:1044A00007D0C80801F00701D8F80020491C02B164
:1044B00090476078000704D5D8F8041009B1A8091E
:1044C00088470C9800F04EFB002063E78402002030
:1044D00030B5044613A185B007C98DE807004FF039
:1044E000FF35C82C16D8C820B0FBF4F1491E080AC5
:1044F0008DF80C008DF80D1003AA022140F2162051
:1045000001F080F930B96A460C2140F6C12001F073
:1045100079F910B1284605B030BD054884810020E6
:10452000F9E70000FEF2ABC4AAF1DFDFBBAFDFDFCB
:10453000840200202DE9FF4104463CA002AB006844
:1045400002903BA0006803903AA006683AA0056874
:1045500004F00300195C8DF80010C4F3C1015A5C2B
:104560008DF80120C4F381129B5C8DF8023003ABFF
:10457000185C8DF80400585C8DF80500985C8DF887
:1045800006006A46032140F2264001F03BF94FF055
:10459000FF37E0BB01AA032140F22A4001F032F9C3
:1045A000A8BBCDE9006560070BD59DF8000040F081
:1045B00001008DF800009DF8040040F001008DF826
:1045C0000400A0060BD59DF8010040F001008DF815
:1045D00001009DF8050040F001008DF80500E005A0
:1045E0000BD59DF8020040F001008DF802009DF807
:1045F000060040F001008DF806006A4603214FF4E2
:10460000886001F0FFF810B901AA032100E004E07E
:1046100040F2314001F0F6F818B1384604B0BDE878
:10462000F081064804810020F8E700004CCD6C00C2
:104630000CC92C00365676002646660084020020FF
:104640004FF47A7290FBF2F008B54843010E8DF8F2
:104650000010010C8DF80110010A8DF802108DF880
:1046600003006A4604214FF4AE7001F0CBF808BD98
:104670000521B0FBF1F008B5010A8DF800108DF8A6
:1046800001006A4602214FF4AD7001F0BBF808BD8D
:104690000521B0FBF1F008B5010A8DF800108DF886
:1046A00001006A4602214FF4AC7001F0ABF808BD7E
:1046B00008B500218DF80010C10702D030218DF817
:1046C0000010810705D59DF8001041F00C018DF810
:1046D0000010400705D59DF8000040F003008DF85C
:1046E00000006A4601214FF4A47001F08BF808BD68
:1046F00008B560B1042800D90420401E8DF80000E0
:104700006A46012140F24F1001F07CF808BD0120FB
:10471000F3E700002DE9FC41054640074FF0FF3666
:104720007CD0B1F5C86F79D8084604F0EFF83E495F
:1047300003F0D6FF074601A800F0A0FB9DF8040097
:10474000022806D004280DD008282ED0102865D1C4
:1047500034E00E21384604F09AFA04F09FF884B24F
:10476000324907E00D21384604F091FA04F096F83A
:104770002F4984B2384604F0DDF804F08FF8210A9E
:104780008DF8001080B28DF80140010A8DF80210FA
:104790008DF80300E8076C4620D0224602214FF432
:1047A000EA7001F02FF8C8BB11E00C21384604F084
:1047B0006EFA04F073F884B21E49DBE70B21384629
:1047C00004F065FA04F06AF884B21B49D2E7A21C2F
:1047D00002214FF4927001F015F8F8B9A8070DD531
:1047E0006A4602214FF4EC7001F00CF8B0B9A21C3B
:1047F00002214FF4947001F005F878B9680710D5DC
:104800006A4602214FF4EE7000F0FCFF30B9A21CA2
:1048100002214FF4967000F0F5FF10B13046BDE86C
:10482000FC810020FBE700000000484300004046F8
:104830000000C045000040450000C0440521B0FB19
:10484000F1F008B5010A8DF800108DF801006A46F4
:1048500002214FF4EF7000F0D5FF08BD0521B0FB39
:10486000F1F008B5010A8DF800108DF801006A46D4
:1048700002214FF4ED7000F0C5FF08BD014601A014
:1048800001F068BE25730D0A0000000010B52E4827
:10489000FFF7F4FF4FF47A742046FFF709FC204637
:1048A000FFF706FC2046FFF703FC2046FFF700FC5D
:1048B0002548C01DFFF7E2FF2046FFF7F9FB204621
:1048C000FFF7F6FB2048FFF7D9FF2046FFF7F0FB84
:1048D0002046FFF7EDFB2046FFF7EAFB2046FFF7F7
:1048E000E7FB19481330FFF7C9FF2046FFF7E0FB4D
:1048F0002046FFF7DDFB2046FFF7DAFB2046FFF7F7
:10490000D7FB2046FFF7D4FB2046FFF7D1FB20461C
:10491000FFF7CEFB2046FFF7CBFB0B482D30FFF710
:10492000ADFF2046FFF7C4FB2046FFF7C1FB06485A
:104930003930FFF7A3FF2046FFF7BAFB2046BDE85A
:104940001040FFF7B5BB00003800002010B50B4C3D
:104950004FF480512046FDF793FA61142046FDF78D
:1049600091FA4FF480412046FDF78AFA2046BDE8CF
:1049700010404FF40041FDF785BA0000000C0140E3
:1049800070B5074D0446C1B22846FEF77BFF802173
:104990002846FEF7DFFE0028F9D0204670BD000053
:1049A0000038014000B5024600F00DF80346D01C67
:1049B00000F009F843EAC003901D00F004F843EA50
:1049C000801080B200BD90F90010002902DD4FF088
:1049D0000000704702DA4FF00400704790F90110B0
:1049E000002902DD4FF00100704702DA4FF00500A8
:1049F000704790F90200002802DD4FF00200704776
:104A000002DA4FF0060070474FF0070070470000D1
:104A100008B5214D214E224FDFF88880DFF88890BD
:104A2000DFF888A04FF6FF74286803F0C5FD024642
:104A30000B461FA11948FBF7CBFC386803F0BCFDFF
:104A400002460B461DA11748FBF7C2FCD9F800002F
:104A500003F0B2FD02460B461BA11448FBF7B8FC5D
:104A6000002223460A2110460096FDF725FA00226F
:104A7000234628211046CDF80080FDF71DFA0022BC
:104A8000234646211046CDF800A0FDF715FA012077
:104A900001F08EFFC8E70000280100204802002036
:104AA0002C0100205C020020300100207002002058
:104AB0007069746368A3BA252E326600726F6C6CDD
:104AC000A3BA252E32660000796177A3BA252E326B
:104AD00066000000012001F06BFFFBE710B5FEF758
:104AE00013F9002000F0BCFE01F02AFD4FF44070E5
:104AF000FDF7B2FFFEF79AFD4FF4E13001F062FDE1
:104B0000FFF77CFAFDF768FCFDF7DEFA4FF6FF7061
:104B1000FDF7BBF9FFF7BAFEFDF7FCF8FDF7BCFDAA
:104B200005E01420FFF78EFA0AA0FBF745FC00F021
:104B300059F90028F5D10A490880FDF7A6F9FFF7D1
:104B400041FAFFF703FFFEF77BF9FDF705F90020B7
:104B500010BD0000B3F5CABCBBAFCAA7B0DC0000F3
:104B60006C01002070470A2001F022FFFBE70000E3
:104B700010B5064C4FF480512046FDF783F96114BF
:104B80002046BDE81040FDF77BB90000000C014055
:104B900010B5064C4FF480512046FDF771F96114B1
:104BA0002046BDE81040FDF76DB90000000C014043
:104BB00010B5064C4FF480412046FDF763F92046BE
:104BC000BDE810404FF40041FDF75AB9000C014018
:104BD00010B5064C4FF480412046FDF751F92046B0
:104BE000BDE810404FF40041FDF74CB9000C014006
:104BF0002DE9F041134D20F00104002695F8240022
:104C000010B10020BDE8F081A87A4FF0FF3838B12C
:104C100020402F7C2874A04200D0464624B901E0F1
:104C20004046EFE7287D40B1012001F033FB3CB165
:104C300000F026FB20B12F74F2E7002001F02AFBE0
:104C40003046DFE7340100202DE9F74F8EB00CA984
:104C500006A8CDE900010BAB02AA09A907A8FFF736
:104C600083FB18B1012011B0BDE8F08FBDF818002A
:104C7000C0057DD5029803F031FE6FF01D0421467A
:104C800004F005F88146039803F028FE214603F05E
:104C9000FEFF8046049803F021FE214603F0F7FF53
:104CA0000646059803F01AFE214603F0F0FF8246FF
:104CB0000121484603F0EBFF0746314603F03AFE78
:104CC00004464FF04041404603F034FE054651464D
:104CD00003F030FE214603F09BFC03F06DFCFEF771
:104CE0005BFE4FF0663B5A463D4B03F08BF902F0FA
:104CF000C1FE0E9908600121304603F0C8FF31461D
:104D0000009003F017FE04462846414603F012FEC9
:104D1000214603F0E5FE4FF07E5103F079FC03F0ED
:104D20004BFC04460D463846414603F003FE074659
:104D30005146009803F0FEFD394603F069FC03F08C
:104D40003BFC22462B46FFF76FF85A46244B03F0F4
:104D500059F902F08FFE0F9908605146084603F09A
:104D6000E9FD07463146084603F0E4FD054600E04C
:104D700034E04146084603F0DDFD04464946084656
:104D800003F0D8FD214603F043FC294603F0A8FEBA
:104D9000394603F0A5FE03F00FFC04460D465146CC
:104DA000484603F0C7FD07463146404603F0C2FDC2
:104DB000394603F02DFC012103F069FF03F0FCFBF1
:104DC00022462B46FFF730F85A46054B03F01AF9F6
:104DD00002F050FE10990860002044E7022042E7EC
:104DE00066A64C4010B5FDF75DFB00F065F808B114
:104DF0000A2010BD782000F0A9FC10F0FF0F01D0B0
:104E0000012010BD7820FFF7F3FE10F0FF0F01D056
:104E1000022010BD642000F05DFC10F0FF0F01D0F7
:104E2000032010BDFFF796FA10F0FF0F01D0042009
:104E300010BD1148FFF7B6FDFFF77CFB10F0FF0F28
:104E400001D0052010BD40F27310FFF75BF910F0A0
:104E5000FF0F01D0062010BD6420FFF739FB10F0D2
:104E6000FF0F01D0072010BD012000F059FB10F00A
:104E7000FF00F8D0092010BD600100200D4A517AD2
:104E800041B1012908D002290FD003290FD04FF0DA
:104E9000FF307047022100E004210170D17C11B184
:104EA000017849000170002070470821F5E71021C2
:104EB000F3E70000340100202DE9FC414C4C802038
:104EC0008DF8000020686B460122817C60680078C4
:104ED000FDF7EBFC4FF0FF37002832D16420FFF7DD
:104EE000B1F800258DF8005020686B460122817CC6
:104EF00060680078FDF7D9FC002870D120686B4607
:104F00000622817D60680078FDF743FC002866D1A9
:104F10009DF805009DF80310C007400F01F0010146
:104F200040EA41019DF801004FF0010600F0010048
:104F3000014309D0012905D0022915D02DA0FBF786
:104F40003BFA4CE0E67410E020686B460122C17821
:104F500060680078FDF71DFC40BB9DF8000010F074
:104F60000F0020D0042822D0E574FF2004F80A0F97
:104F70004FF6FF7104F8020C04F8010C6070A18078
:104F8000A0712072A67026766576E572A572E5603E
:104F900025616561A576E576A5834FF4FA6000F09A
:104FA000FBFA18B907E01D48FBF706FA17E01CA04A
:104FB000FBF702FAC6E7022000F010FA78B92A20BF
:104FC00000F052FB58B9322000F084FB38B90020C1
:104FD000FFF70EFE18B9002000F034FA10B1384681
:104FE000BDE8FC81002000F0B1FB0020F8E70000E4
:104FF00034010020556E737570706F727465642093
:10500000736F6674776172652070726F6475637414
:10501000207265762025642E0A0000000CB300087B
:1050200048616C662073656E73697469766974791A
:10503000207061727420666F756E642E0A00000025
:105040002DE9FF4FDFF898A0054685B09AF82500B6
:10505000914688464FF0FF3BC0BBB8F1000F35D0FA
:1050600000241FE0281B102800DD102086B208EB6A
:1050700004073A463146204600F0C4FB30BB6A467E
:105080003146204600F0D2F800BB38463246694629
:10509000FBF760FB20B16FF0010009B0BDE8F08FB5
:1050A000A01984B2AC42DDD34FEA19208DF810006C
:1050B0008DF81190DAF80000544604AB817EDAF8DE
:1050C000040002220078FDF7F0FB08B15846E4E73F
:1050D000012084F825000898E0840020DDE7000026
:1050E000340100202DE9F84304464FF0FF39282809
:1050F00044D80727284D00267CB1012000F082FA11
:1051000020208DF800004FF00108012C17D0052C4D
:1051100018D88DF8018005201FE0002000F072FAF9
:105120008DF800608DF8017028686B460222817C42
:1051300068680078FDF7B9FB00BB2E7529E08DF893
:105140000160E8E7142C04D802208DF801000A2041
:1051500003E003208DF80100142000F085FA9DF88B
:1051600001006B4607EB80108DF8010028680222D1
:10517000817C68680078FDF798FB10B14846BDE86F
:10518000F8830820A8722E7385F814800020FFF79A
:105190002FFD0020F3E70000340100202DE9F84343
:1051A000214E0546174696F8240089464FF0FF38F1
:1051B00090B3B07A80B330686B460222817A70680F
:1051C0000078FDF7E6FA38BBBDF8000044BAAC42FF
:1051D00002D2002038701FE070684188B4EB510F94
:1051E00011D9316800786B46497C0122FDF7D1FA6C
:1051F00090B99DF80000C00605D500F041F86FF0A9
:105200000100BDE8F8833068EAB24B46C17A7068A5
:105210000078FDF7BEFA08B14046F2E7B4FBF5F0BE
:10522000401E38700020ECE734010020F8B517006C
:105230000D464FF0FF341FD0104EB17AE1B1010A94
:105240008DF80010C0B28DF80100411970684289D4
:10525000914211D8316800786B46097E0222FDF731
:1052600024FB48B93068EAB23B46417D706800785B
:10527000FDF78FFA002800D02046F8BD3401002049
:10528000F8B5554D4FF0FF36A87A00287ED000249F
:105290008DF8004028686B460122C17B6868007861
:1052A000FDF703FB002871D128686B460122417984
:1052B00068680078FDF7F9FA002867D128686B461E
:1052C0000122017968680078FDF7EFFA00285DD1C6
:1052D00095F82400E0B30C208DF8000028686B4698
:1052E0000122017968680078FDF7DFFA002871D1A2
:1052F0003220FEF7A7FEC0208DF80000A87AC00774
:1053000002D0E0208DF8000028686B460122017968
:1053100068680078FDF7C9FA00285BD1687C18B18D
:1053200002208DF8000001E08DF8004028686B46EF
:105330000122C17B68680078FDF7B7FA30BB8DF8B1
:10534000004028686B4601224179686800783DE09A
:10535000FFE704208DF8000028686B4601220179E0
:1053600068680078FDF7A1FA80B9A87C88B9A87AA6
:10537000C0070ED060208DF8000028686B4601221F
:10538000017968680078FDF790FA00E022E008BB38
:1053900001E04020EFE73220FEF754FE687C18B1B0
:1053A00001208DF8000001E08DF8004028686B4670
:1053B0000122C17B68680078FDF777FA50B9286848
:1053C000054B01224179686810330078FDF76DFACA
:1053D000002800D03046F8BD3401002038B5184C04
:1053E0004FF0FF35A17A19B3022806D0042806D061
:1053F00008280ED010281BD10DE0002000E0082066
:105400008DF80000607A9DF80010B0EBD10F04D049
:1054100005E01020F4E71820F2E7002038BD2068EE
:105420006B460122C17960680078FDF73EFA08B149
:10543000284638BD9DF80000C0086072EDE7000006
:1054400034010020F8B5354D0446A87CA04201D1B6
:105450000020F8BD31484FF0FF366B46D0E9001010
:105460004FF001020979007834B3FDF792F970BB6F
:105470009DF800006B4620F020008DF800002868A1
:105480000122017968680078FDF70FFAF8B9032066
:10549000FEF7D8FD02208DF8000095F8220078B3C1
:1054A00082202BE028686B460122017D6868007825
:1054B000FDF7FBF958B92EE0FDF76BF938B9A87A7A
:1054C000C0079DF8000003D040F0200002E00CE08F
:1054D00020F020008DF8000028686B460122017939
:1054E00068680078FDF7E1F908B13046F8BD03209F
:1054F000FEF7A8FD95F8220000B180208DF800008D
:1055000095F823000028CDD09DF8000040F0300031
:105510008DF80000C6E7AC749AE700003401002063
:1055200038B51C4C94F8241081421DD0002500B3DE
:1055300094F82500D0B1002000F0ACFE0020FFF769
:1055400081FFE08C00F0C6F88DF8005060686B4673
:10555000012200782321FDF7A8F9012084F8240016
:1055600000F098FEFFF78CFE002038BD4FF0FF30B2
:1055700038BD002000F08EFE207C8DF800006068B1
:105580006B46012200782321FDF78FF984F824501F
:10559000E8E700003401002038B5194C4FF0FF3522
:1055A000A17A31B3FA2809D0B0F5FA7F08D0B0F566
:1055B0007A7F0FD0B0F5FA6F1BD10DE0002000E02C
:1055C00008208DF80000207A9DF80010B0EBD10F74
:1055D00004D005E01020F4E71820F2E7002038BDE1
:1055E00020686B460122817960680078FDF75DF9DB
:1055F00008B1284638BD9DF80000C0082072EDE7CC
:105600003401002038B5174D044695F82300A04218
:1056100001D1002038BD0CB1302000E000208DF811
:105620000000A87C28B19DF8000040F002008DF831
:10563000000095F8220028B19DF8000040F080009D
:105640008DF8000028686B460122017D68680078AB
:10565000FDF72BF910B14FF0FF3038BD85F823402E
:10566000D7E700003401002038B5194C4FF0FF3562
:10567000A17A31B3BC2801D3012010E0622801D304
:1056800002200CE02A2801D3032008E0142801D3CB
:10569000042004E00A2801D3052000E006208DF84C
:1056A0000000E07A9DF80010884201D1002038BD4A
:1056B00020686B460122817860680078FDF7F5F874
:1056C00008B1284638BD9DF80000E072EEE7000002
:1056D00034010020F8B51C4D04464FF0FF37A87A7E
:1056E00028B395F8240010BB287D48B12CB1282C94
:1056F00003D8E0B2FFF7F6FC24E00020FFF7F2FC4D
:105700004FF47A76042C01D2042402E0B44200D98A
:105710003446B6FBF4F0401E8DF8000028686B4656
:105720000122417868680078FDF7BFF808B1384673
:10573000F8BD9DF80000401CB6FBF0F0E881400881
:10574000FFF792FF0020F8BD34010020F8B50446B1
:1057500010F0700F4FF0000601D0012004E014B1EA
:105760008DF8006002E040208DF80000244D6B466B
:1057700001222868817C68680078FDF796F84FF070
:10578000FF3760BB9DF8000020F0400028738DF8C3
:105790000060600602D404208DF80000A00605D445
:1057A0009DF8000040F002008DF80000E00605D4EE
:1057B0009DF8000040F001008DF80000200705D49E
:1057C0009DF8000040F038008DF8000028686B4616
:1057D0000122C17C68680078FDF767F810B1AE72ED
:1057E0003846F8BD24B1082C02D00020FFF70AFF8C
:1057F000AC722E753220FEF725FC0020F8BD0000AB
:1058000034010020F8B517000D464FF0FF341FD0CB
:10581000104EB17AE1B1010A8DF80010C0B28DF8D6
:105820000100411970684289914211D831680078AD
:105830006B46097E0222FDF738F848B93068EAB2B3
:105840003B46417D70680078FDF72FF8002800D0B6
:105850002046F8BD34010020002800DA404270479D
:1058600070B504460B480C4E002150F8240006EB9E
:1058700084054200286900F02DF806480021103008
:1058800050F82420A86800F025F801203119087686
:1058900070BD00002CB10008B001002010B50B4B0A
:1058A0000B4C002253F82030114604EB800005E039
:1058B000046934F8114004B1521C491C8B42F7D8DA
:1058C00064204243B2FBF3F0C0B210BD2CB100081B
:1058D000B001002001E000F8011B521EFBD270470E
:1058E0002DE9F041184E0F460446F5683068001D5A
:1058F00000F0D4FE38B9306890F82C1001208840B0
:10590000316981433161601C07D137B13168BDE82D
:10591000F0410E48091D00F0F9BE30682C44AC423D
:105920004460316805D2306CBDE8F041091D00F0DB
:10593000D5BEF06B091D00F0D1FEB06A844200D2E2
:10594000B462BDE8F0810000CC010020705F00204F
:105950002DE9F041054600F0E5FE2D4EB068401CF3
:10596000B06030682B4F10B1706930B32BE03560F8
:10597000B068012827D1002404EB840007EB8000E5
:1059800000F09EFE641C202CF6D3234800F098FE05
:105990002148143000F094FE1F48283000F090FE9B
:1059A0001D483C3000F08CFE1B48503000F088FE53
:1059B0001948F0631430306405E03068E96AC06A61
:1059C000884200D83560706A0121401C7062A8646A
:1059D000E86A326981401143316100EB800007EBD6
:1059E0008000291D00F092FE00F0D8FE70690028AA
:1059F0000CD03068E96AC06A884207D207494FF084
:105A000080500860BFF34F8FBFF36F8FBDE8F08108
:105A1000CC010020A05C0020205F002004ED00E00D
:105A200010B500F07FFE0E4C2068A0B90D4800F0C4
:105A300047FE0C48143000F043FE0A48E060143082
:105A4000206100221021052001F006FA206010B12B
:105A500005A100F079FFBDE8104000F09FBE0000F6
:105A600010020020845F0020546D7251000000007D
:105A700070B5124E124D1CE001F046F9306820B1AD
:105A8000002401F071FEA4B901E00124F9E700F05F
:105A900049FEF068C468201D00F000FEA868401EA2
:105AA000A8606868401E686000F078FE204600F03C
:105AB00052F868680028DFD170BD00005C5F0020EC
:105AC000CC01002030B4026C0B46002A0BD0C16818
:105AD0001144C1604468A14201D30168C16030BC77
